:020000040800F2
:1010000000200020B15C0008F9610008FD610008C3
:1010100000000000000000000000000000000000D0
:101020000000000000000000000000000162000855
:1010300000000000000000000562000809620008CE
:10104000F95C0008F95C0008F95C0008F95C00082C
:10105000F95C0008F95C0008F95C00088563000889
:1010600000000000F95C0008F95C0008116200084B
:1010700001630008F95C0008F95C0008000000004A
:1010800081630008F95C0008000000001D6300088F
:101090006963000835630008F95C0008F95C000822
:1010A000F95C0008F95C0008F95C0008F95C0008CC
:1010B0007D63000800000000000000000000000048
:0C10C000F95C000800000000F95C00086A
:1010CC0010B540F63C04C2F20004237863B940F238
:1010DC000003C0F200032BB147F2C020C0F60000A1
:1010EC0000E000BF0123237010BDC04640F2000396
:1010FC00C0F2000310B54BB140F6400147F2C020DE
:10110C00C2F20001C0F6000000E000BF10BDC046F6
:10111C0040F23473F0B5DE46454657464E4640F233
:10112C00207040F2C834C2F20003DA6FE0B51D88BB
:10113C0092B2511BC2F2000089B20088C2F20004C4
:10114C0093464A098BB021806280884200D3D3E059
:10115C0040F2C430C2F200000088884200D8CBE0D4
:10116C0040F2F051C2F20001080009910021018007
:10117C005968D868491B9D689E69401B80B28242A1
:10118C00804140421D698446A06058691F6A401B1B
:10119C0080B282428041DD6940420590E060A81B2C
:1011AC0080B2824280415E6A4542F01B80B282422C
:1011BC008041DF6A4642986A0396381A80B28242AE
:1011CC0080415F6B66611E6B40420290A061B81B50
:1011DC0080B282428041DF6B049525619D6B464253
:1011EC00781B89B280B2824280418A428941454251
:1011FC004942069161600196E661009525625F6C3B
:10120C00186C9E6C381A80B2824280414742D86C6E
:10121C001D6D801B5E6D196E751BADB2AA42AD4182
:10122C006E42B2469D6DE662DE6D80B2761B5D6EDF
:10123C00B6B26D1AADB2AA42AD416D42D96E0795E8
:10124C0065639D6E82428041491B89B28A42894105
:10125C0049421D6F8946A163596F9B6F491B89B227
:10126C008A42894149428846E1635946CB1A9BB26E
:10127C000699B242B6419A429241039B08974B4061
:10128C007B4067626746D900029B40425F403B004F
:10129C0043409B000B435146049D009F76427D408A
:1012AC0026636E401E43019D059B52426B404B4092
:1012BC005B001E434B462264A062079D9B0040F2DC
:1012CC00BC59ED001D434346C2F2000915435A00B8
:1012DC004B4640F201681B781543C2F2000893B1EB
:1012EC0043461B789BB9B54215D05422A35A0133FF
:1012FC00A35248230022E2540BB0F0BCBB46B246CA
:10130C00A946A046F0BD43461B78002B6DD00F2399
:10131C005D1BEDB2E7E70023099A13804622A35A1E
:10132C000133A352236B012B04D140F2EA52C2F2D7
:10133C0000021370624651025246069B40009B020B
:10134C000B431343059A1102049A0B43D201134326
:10135C00039A92011343029A52011343019A120108
:10136C001343009AD2001343089A92001343482265
:10137C001843A35C2BBB2F285ADD4D22A25C002AFC
:10138C0000D09BE040F21C65C2F2000528780028D2
:10139C00B2D040F2A453C2F200031B78002BABD1A5
:1013AC004B461B78002BA7D05023E25C824200D125
:1013BC0091E0E054052800D897E04E230122E25436
:1013CC009AE7012B75D0022B6ED0032B94D12528D4
:1013DC0092D14A2140F248632730615A205CC2F214
:1013EC00000358540023A35486E704F0DDFD70B3CA
:1013FC004422A35C0133DBB2A354642B27D9012311
:10140C00424613706368A06A0693A3689C46E3681F
:10141C0005932369049363690393A3690293E369B6
:10142C000193236A0093636A0893E36A9A466EE712
:10143C00421E2E2A21D840F2A65240F21C65C2F25E
:10144C000002C0B2C2F2000513802870A1E76368E5
:10145C00A06A0693A3689C46E368059323690493EA
:10146C0063690393A3690293E3690193236A00936D
:10147C00636A0893E36A9A4632E7002882D14F23C5
:10148C00E35C012B01D14C33E05440F2A653002114
:10149C00C2F20003198040F21C630022C2F2000366
:1014AC001A704E23E25427E74A33E054493BA354C5
:1014BC0022E74933E052483BA3541DE740F2A652C1
:1014CC00C2F20002108040F21C62C2F200021370E1
:1014DC004E22A35410E7052807D94E22A35C0133F2
:1014EC00DBB2A354052B00D806E74E230022E254AE
:1014FC00242809D84D4B80001B589F4640F2C253FC
:10150C000122C2F200031A7040F21D632A78C2F263
:10151C0000031A7000232B70EEE648230122E254DC
:10152C00F2E740F2486240F25403C2F20002527CED
:10153C00C2F200031A70E7E740F24862C2F20002FE
:10154C00517C40F254030122C2F20003521A1A7069
:10155C00DAE751230022E25402330132E254D3E79A
:10156C0001235122A354D218A3544E33E35C012B14
:10157C00CAD1053AA354C7E700F0D2FB40F2486247
:10158C0040F2C253C2F20002527CC2F2000301329A
:10159C001A70B9E740F248630122C2F200039A7450
:1015AC00B2E740F248630022C2F200039A74ABE740
:1015BC0040F248630122C2F200035A7440F2540311
:1015CC000022C2F200031A709EE740F24863002228
:1015DC00C2F200035A7440F254030132C2F2000307
:1015EC001A7091E740F206630122C2F200031A70EE
:1015FC008AE740F2C2530522C2F200031A7083E755
:10160C0040F2C2530422C2F200031A707CE740F28B
:10161C00C2530322C2F200031A7075E740F2C253A0
:10162C000222C2F200031A706EE7C046D87200089C
:10163C0040F2C8335122F0B5C2F200039A5C002A82
:10164C003AD152329A5C002A42D05222002199544B
:10165C0001329A5C002A00D1CDE05322002143F6DE
:10166C00FB5499544EF6F172C0F207041900012094
:10167C00583188715A669C6640F2317340F2384793
:10168C0080220125C2F200031E78C2F20007731CEF
:10169C009B00B600FA50F01941686D3A2B0093404C
:1016AC002340D340C9095940C90181600430013A33
:1016BC00F4D20023BB51F0BD1A005832967958274A
:1016CC00002E50D00021917152229A5C002ABCD17C
:1016DC0053229A5C002AC0D140F2A452C2F20002FA
:1016EC001278002A00D18DE00400C213012A00D127
:1016FC008AE08213012A00D1B4E04213012A00D1FE
:10170C00AEE00213012A00D1A8E0C212012A00D1D6
:10171C00AAE08212012A00D1AAE04212012A00D1C9
:10172C00A4E000221A66020A0109514048400F2128
:10173C000A00824310002201024347F26C300D0074
:10174C00C0F600001413045D1540455DE4032C4302
:10175C0015120D40455DAD022C4315112940415C1D
:10176C0049010C4386E791885488DD5B01310134D3
:10177C00013589B2A4B2ADB291805480DD532729D2
:10178C004AD8C72C58D940F2E6511920C2F20001B0
:10179C0009885680B1FBF0F0FF21014040F2004077
:1017AC00014352229A5C002A00D04EE753329A5CD5
:1017BC00002A00D051E7080A0A0942400F20040011
:1017CC004A409443220047F26C3509010A43C0F6A3
:1017DC000005090B6C5C01001140695CE4030C43CF
:1017EC0011120140695C89020C4311110140695CC2
:1017FC0049010C433AE746F23B744EF20102C0F247
:10180C00070433E74FF6FF740F22083A14415102D4
:10181C000C431A66A0B286E740F2EC51C2F200010A
:10182C000020095E322091FBF0F0FF21014040F2D4
:10183C00006096800143B4E7C72D09D940F20262DB
:10184C00C2F20002117840F20022DE531143A8E7E5
:10185C0052229A5C002A00D0F7E639E70C22D4E732
:10186C000D22D2E70E22D0E70B22CEE70922CCE7DD
:10187C000A22CAE770B50600049D8E420CDC0FE00C
:10188C00AB420FD08C18581964104010A14206D0EE
:10189C00A64209DC050022009642F1DB280070BD4F
:1018AC009642FBDA1800FAE70300611CE5E7C04634
:1018BC000300401A00D5C81A7047C04644F62401EC
:1018CC00C4F201010A6880B292B20B689B1A9BB2F7
:1018DC008342FAD37047C04610B5441E70B144F62B
:1018EC00240140F2E730C4F201010A6892B20B689D
:1018FC009B1A9BB28342FAD9013CF6D210BDC0466A
:10190C0070B504000D0000295AD0002200200721D8
:10191C0028E043B2C6B2002B2FDB7300D8B25BB207
:10192C00002B30DB4300D8B25BB2002B31DB430021
:10193C00D8B25BB2002B32DB4300D8B25BB2002BC7
:10194C0033DB4300D8B25BB2002B34DB4300D8B29C
:10195C005BB24000002B00DA48400132D3B2C0B277
:10196C009D422ED9A35C584043B24000002BD0DAE4
:10197C00484043B2C6B2002BCFDA7000484043B2A5
:10198C00C0B2002BCEDA4000484043B2C0B2002BAC
:10199C00CDDA4000484043B2C0B2002BCCDA400054
:1019AC00484043B2C0B2002BCBDA4000484043B2AF
:1019BC00C0B2002BCADA4000484043B2C0B2C8E7FC
:1019CC00002070BD70B504AC258840F2CC44C2F246
:1019DC0000042070A170080A2271110AA3711A0A5E
:1019EC002B0A6070E1702572092120006271E3718D
:1019FC00FFF786FF607270BD10B540F2CC4440F228
:101A0C004861C2F2000430222000C2F2000105F04D
:101A1C003FFC30212000FFF773FF3023E05410BD52
:101A2C0070B540F2000540F24864C2F20005C2F203
:101A3C000004C0222000296882B004F09FFB637868
:101A4C00022B00D826E1A379591EC9B240F20056E8
:101A5C00E27DC2F200062A2A52D8101F05284FD95F
:101A6C00032A51D90A3AD2B2202A52D9207E020036
:101A7C00083AD2B2882A53D864224243062092FBF9
:101A8C00F0F044F6F052C0F2120292FBF0F242F681
:101A9C002C40C4F20100AA80026031294AD89A0075
:101AAC009B185B001A009132FF3292B2617E2B813F
:101ABC0008003238642801D85B189BB2AA8128220E
:101ACC006B81A37E022053431433EB8102F05CFA4A
:101ADC006378002B36D1E88940F2F4130093F53388
:101AEC00FF3340F6B83240F22C11FFF7C3FE5023FF
:101AFC00E852A37C13B340F2E833B36002B070BD7C
:101B0C0010203070032AADD8D200D2B210000A30A7
:101B1C00E0753270207E0200083AD2B2882AABD926
:101B2C0042F62C4240F6B730C4F20102E880106055
:101B3C003129B4D940F290120023B7E740F2D073A8
:101B4C00B360DBE7A07F0B2800D8E3E0052002F0B0
:101B5C001BFA2023E35C40F26B3C7833FF335B00D1
:101B6C002B822123E35C002263445B006B822223E3
:101B7C0040F25E5CE35C6344AB822323E35CAB75B5
:101B8C002523E35CFA332B832723E2542832A35C0E
:101B9C00053B142B01D90523A3542922A35C013B3B
:101BAC00092B01D90A23A3542A23E25C511E0829CC
:101BBC0000D87EE00A22E2542B22A35C463B462B43
:101BCC0001D9FF23A3542C23E35C013B622B01D8E6
:101BDC00012373702D22637A5B006B62A37AAB6274
:101BEC00E37A5B00EB62A35C013B092B01D9052373
:101BFC00A3542E23E35C092B0DD8022B00D18CE0CF
:101C0C0038D84BB1012B0FD140F21542C2F2000271
:101C1C00B370137008E00023B370F37040F21543F7
:101C2C000122C2F200031A706379092B5DD80922D4
:101C3C0032713F32AB540132AB540132AB5440F2EF
:101C4C002B13E889984202D80022E03BEA54202367
:101C5C006422E17EB0FBF2F293FBF1F192FBF1F224
:101C6C002C33EA52403BB0FBF3F34E2293FBF1F3DF
:101C7C00AB5231E7042BD7D140F217430122C2F209
:101C8C0000031A7040F215430021C2F200031970D0
:101C9C00B270C9E7A02363719F3BE38046F20A430D
:101CAC00C6F20043A36000230021E36023740133D8
:101CBC00CCE653019B1A9B009B1A5B006A89383B4C
:101CCC00DBB29A186A812A89AB769A182A81AA8B78
:101CDC009A18AA83AA899A18AA8142F64442C4F295
:101CEC00010211680B43136066E7002232710A325D
:101CFC00B3FBF2F33E32A95C8B4200D2AB544922C7
:101D0C00A95C8B4200D2AB544A22A95C8B4296D27E
:101D1C00AB5494E702F038F91BE70123F37083E727
:101D2C0040F2000340F2486010B5C2F20003C0213B
:101D3C001A68C2F2000004F0C5F910BD70B540F28B
:101D4C0000045423C2F20004E35C5521012B49D05A
:101D5C00635C5A1ED2B2002A2ED040F20055625457
:101D6C000122C2F2000513405222A35472B67F2303
:101D7C00EB5C002B31D062B604F04CF940F280538E
:101D8C00AA68C2F20003F5321968FF328A4202D205
:101D9C0056220121A15400227C211A716A5440F26E
:101DAC0080525523C2F200029446E35CA26D013BC3
:101DBC005B0063441A8170BD062340F2005501227A
:101DCC006354C2F200057833EA5452227D3BA3548B
:101DDC0072B67F23EB5C002BCDD15533E05C04F065
:101DEC004DFEC8E7625C0132D2B2062A07D940F236
:101DFC0000557E22C2F200056354AB54B4E740F2A6
:101E0C00005562541340C2F20005ADE744F20C4396
:101E1C000121C4F201031A6870B58A4340F2805460
:101E2C001A60FFF78BFF40F20001C2F20004E28A55
:101E3C00A38AC2F200019B188A6D40F24860944656
:101E4C002F255B1063445A088A65C2F20000405D7E
:101E5C00B0B940F20050C2F2000000789B08424337
:101E6C00920992B262839A1A5623CB5CA2839BB1DD
:101E7C0042F20F72236A934201D80133236270BD80
:101E8C00207E9B084243920992B262839A1A56238F
:101E9C00CB5CA283002BEBD104F0B2F8E8E7C04690
:101EAC00F8B540F200055C23C2F20005EB5C6BB1A7
:101EBC00002452265C2703E0EB5D0134A34205DDD0
:101ECC0004F086F8AB5D8342F6D1F8BD72B604F02F
:101EDC0085F840F2805341F22401C2F20003DA8A01
:101EEC00C4F200019A820A68DA8200220A6044F283
:101EFC002441C4F201010A6044F22C419B8BC4F2D0
:101F0C00010101330B6044F21043C4F201031A6067
:101F1C0044F20C430121C4F201031A680A431A600B
:101F2C0062B6D2E7F0B5D6464F46464640F2486513
:101F3C00C0B5C2F20005AB7C82B0C3B340F200570F
:101F4C00C2F20007BA78002A00D1D6E040F28054E1
:101F5C0040F20006C2F20004C2F200062623EB5C3B
:101F6C00002B00D09AE140F21743E28C9A4200D940
:101F7C009EE21300303B9BB240F2E7318B420ED80D
:101F8C005421687C775C5339091A8F4200D10CE3D9
:101F9C005D215B00715C9BB25B1A2F3323852F2A6A
:101FAC000FD80023002223852F33E25409E040F29E
:101FBC00805440F20006C2F20004E38CC2F2000628
:101FCC00238530275E23E25DF35C9A4203D9AB7D17
:101FDC00002B00D01BE1EF7C002F00D173E0208D93
:101FEC001D2800D9FDE0002363862823EB5C9900B3
:101FFC00C9188900884200DBFFE02E23E35C002B2C
:10200C005BD13C33E35C002B57D0EA7C608E9300B1
:10201C009B181B012E33834200DB2FE12427E35D49
:10202C00002B00D18FE33389002A00D169E240F202
:10203C00D0722833009289212F32FFF71BFC4023EA
:10204C00E0522623EB5C002B00D044E240F2005718
:10205C007F22C2F20007BB54EA7C618E93009B186E
:10206C001B012E33994200DC0CE12E2906D91E23CC
:10207C006A7F1341226A934200D94CE24023E35A0F
:10208C0040F28002C2F20002508A984202D24023EF
:10209C00E0520300787820B11420125E934200DDE8
:1020AC0048E2E26C002A08DD2F2906D942F21071B1
:1020BC0092FBF1F29B184022A35202B0E0BCBA464C
:1020CC00B146A846F0BD3423E35C002B00D185E07B
:1020DC003523E35C002B00D0F9E042F21072A36BC5
:1020EC0093FBF2F340F2FF729BB26386934200D8EB
:1020FC008FE140F2FF7363867FE7262340F2805422
:10210C00EB5CC2F20004002B00D189E040F2000627
:10211C00E38C40F2E8319A46C2F20006B37D5B00D4
:10212C0059188A451DDD6B7C98465423F05C844617
:10213C00404500D19FE27F23FB5C002B00D009E1DE
:10214C002A230022E25440F2FF735046009340F2DF
:10215C00D0722F23FFF78EFBE38C20859A46B37D3C
:10216C005B0040F2E832D21A524524DD6B7C5421DC
:10217C009C46735C604699460123181A814500D130
:10218C00AFE27F23FB5C002B00D0E3E02A2300218D
:10219C00E15405335046009340F2FF73FFF76AFB9E
:1021AC00E38C40F2E8329A46B37D20855B00D21A6C
:1021BC00924500DACEE040F2E83C63449A4500DDFB
:1021CC00C8E0002323857F33FA5C002A00D1C1E0EC
:1021DC000022FA540122553BE254BBE0238D638666
:1021EC000BE71E2800D100E72823EB5C9A00D218DD
:1021FC0092001100904200DA85E040F2FF7340F249
:10220C00FF720093A023FFF735FB6086F5E604F020
:10221C00E7FB03F0E3FE002363866633E355ECE64D
:10222C0040F2000640F2E833C2F20006B27DE08CC8
:10223C005200D11888426FDD54226B7CB25C9A42FA
:10224C0000D1E8E140F2FF7340F2D07200932F23EB
:10225C00FFF710FB40F2E832B37D2085E08C5B0089
:10226C00D21A82425DDC40F2E83C6344834271DB6B
:10227C000023002223852F33E2546BE040F20057F9
:10228C00C2F200074223E35C002B00D18EE0052B49
:10229C0000D988E0D14A9B00D3589F4640F21742A0
:1022AC00E38C93425BD940F254084246687CB15CA3
:1022BC00814200D127E27F22BA5C002A00D080E65E
:1022CC002A220021A154C64A9446634462E0736EEC
:1022DC0040F2FF7200932F21336E208DFFF7CAFA64
:1022EC0048F20073C0F2933393FBF0F3E87E40089E
:1022FC0093FBF0F3E386238D2E2B00D9EDE6678656
:10230C00B766A76379E6A0231E210093713BFFF704
:10231C00B1FA6086208D68E640F2E8339A1A904252
:10232C00A6DA5423F35C697C9C4601235B1A9C451A
:10233C0000D1B9E12F230021009340F2FF73FFF786
:10234C0099FA40F2E832B37D2085E08C5B00D21A1A
:10235C00904288DABB78002B00D132E6FEE540F2E1
:10236C00E732303B9BB2934200D994E06A7C40F256
:10237C00540C904662464146B05C533A511A88421E
:10238C0000D169E17F22BA5C002A00D019E62A222A
:10239C000021A1545D22B25C5B009B1A2F33238574
:1023AC000FE601F0A3FF42230022E2542B7DB3BBC6
:1023BC004022A3522433E35C002B00D1BEE0262341
:1023CC00EB5C002B00D193E07F23FB5C002B00D156
:1023DC0095E0BB78002B00D104E2E38C40F2E731AE
:1023EC001A00303A92B28A4200D91DE253005D22A3
:1023FC00B25C9B1A44222F339BB2A35240F2CE7292
:10240C00934200D8EBE104F017FD7F23FB5C984668
:10241C0071E02F2B00D9F0E530236386EDE5242302
:10242C00E35C002B00D19CE0E97C7F23FB5C9846AD
:10243C0055233C22F35C013B534340F28002C2F231
:10244C000002128A9B1840F2671298B21BB2934298
:10245C0000DD89E1223AFF3AA352020040F26713F1
:10246C00773212B29A4200DD84E1203BFF3BE2520C
:10247C00020040F26713EF3212B29A4200DD6FE1B4
:10248C001E3BFF3BE252012901D12E23E154402394
:10249C000022E2522FE0002323857F33FA5C002ACE
:1024AC0000D18EE50022FA540122553BE25488E516
:1024BC0054216B7C715C994200D193E05D20484BB8
:1024CC00305CD1181300490089B2091A303B2F3106
:1024DC009BB2218550E540F20057EA7CC2F200071E
:1024EC0093009B181B01628E2E33934200DBC9E6CE
:1024FC007F23FB5C98464346002B00D0DDE5618EC4
:10250C00B3E540F2D0722F2100922F32FFF7B2F9CF
:10251C004023E05295E540207289235A934201D220
:10252C0013002252B2899A4200D3A9E54023E25209
:10253C001300A5E593B24022A352B2E50121236218
:10254C002B7F1632B154002B00D045E17F23FB5C6E
:10255C00002B00D156E12623EB5C002B00D038E792
:10256C00ABE556220121B15427322362BB542B7F99
:10257C009846002B00D12CE1E97C002900D054E7CF
:10258C00012B00D051E72923C822EB5C5343843A3A
:10259C00A35240F2CE72934200D84EE104F04CFCB0
:1025AC007F23FB5CE97C984642E75023B26DF35ADB
:1025BC00934200D300E1A38DC72B00D9FCE001228C
:1025CC0056230027F254023BF054276203F006FD19
:1025DC002F23E28CE7541300303BD9E47C730008C2
:1025EC00E8FBFFFF5022B16DB25A8A4200D3D1E012
:1025FC00A28DC72A00D9CDE00122D31A542200277C
:10260C00B3545623533AF254276203F0E7FC2F23BA
:10261C00E28CE75452E75022B06DB25A824200D39A
:10262C00ADE0A28DC72A00D9A9E0012240F2000832
:10263C00D31A5422B3544346533A23625633F254BA
:10264C0003F0CCFC2F23424640F2E83CB17DE08CF9
:10265C004900E2546144F5E5002121857F317A542B
:10266C002932A25C002A00D1ABE462464046B05449
:10267C0000227A548BE640F2010840F27F09404672
:10268C00228540F22A084A46B8544046205C00286D
:10269C0000D15FE60120804662464046801AF05425
:1026AC004A460023BB544BE55023B06DF35A83428A
:1026BC0078D2A38DC72B75D840F20008434601226F
:1026CC0023625633F254023BF15403F087FC2F2360
:1026DC004246E25440F2E833B27DE08C52009A1A42
:1026EC0028E640F20008404640F27F08208540462C
:1026FC003B542933E35C002B00D12BE66346735427
:10270C0000233B5442E540F2010C0020624640F2AB
:10271C002A0C20857F303A546246A25C002A00D1F4
:10272C004FE4012294466246511A4246B1540022AB
:10273C003A54C5E501F048FD35E601F05BFE32E6A2
:10274C0001F016FE2FE604F04BF95623F35CDBB3D5
:10275C0024230122E2547389608EE387EA7C62E4CD
:10276C004A227938A0528EE646236938FF3880B267
:10277C00E05272E603004822F13BA35278E62E2287
:10278C00A25C002A00D050E740F2E83340F2E83077
:10279C00E38457E52E22A25C002A00D02CE7E284C9
:1027AC00FFF7FFFB2E23E35C002B85D140F2E833CF
:1027BC0040F2E830E384BDE52E23E35C002B00D02F
:1027CC00FDE6E384FFF7EDFBE35DF3B103F018FCEA
:1027DC00BEE704F005F927E604F02EFBEFE504F064
:1027EC00BDF885E640F2E830E18CFFF761F840F285
:1027FC00E8334422C3189BB2A352BA78002A00D102
:10280C00FCE5EAE504F0ECF8D9E5FFF797FA42F2BB
:10281C001073B36541F2240341F28832C4F2000311
:10282C001A600123E355D1E740F2174293420BD9CA
:10283C00074A944663445B00D9E504F08FF87F2384
:10284C004246FA54E97CF3E54423E35AD6E5C04604
:10285C00E8FBFFFF70B540F280545025C2F2000433
:10286C00635D012B0BD0022B02D0FFF75BFB70BD1D
:10287C00636D98B2FEF7DCFE00236355F7E7FEF7B5
:10288C0047FC00236355F0E7F8B54546DE4657464E
:10289C004E46E0B540F20005542340F28054C2F29B
:1028AC000005EA5C4621C2F20004F2B940F267105E
:1028BC00635A01331BB2834200DD7AE06352482134
:1028CC0040F26710625A013212B2824200DD0022DD
:1028DC0062524A2140F26710625A013212B28242AD
:1028EC0000DC74E00022625214E0625A013A13B226
:1028FC00120400D56DE063524821625A013A10B2BD
:10290C00120459D460524A21625A013A10B212048C
:10291C005BD4605240F2D808C2F2000840F2800743
:10292C00424640F22D0A40F2D07BC2F200075B0017
:10293C00F88A9B5E40F248661B18A88852464343AF
:10294C0093FBFBF340F20A09C2F20006B05C584359
:10295C0090FBF9F080B203F03BFF4823E35E424664
:10296C005B00F88A9B5E52461B18A888434393FB76
:10297C00FBF3B05C584390FBF9F080B203F02EFFF0
:10298C004A23E35E42465B00F88A9B5E52461B1864
:10299C00A888434393FBFBF3B05C584390FBF9F0DE
:1029AC0080B203F021FFF0BCBB46B246A946A0465C
:1029BC00F8BD0023625282E740F2671262524A214C
:1029CC00625A013A10B21204A3D540F26712625255
:1029DC00A0E740F2671363524821625A013A10B2E1
:1029EC00120400D48EE7E7E741F2240170B540F2FF
:1029FC008054002340F20005C4F200010868C2F2C2
:102A0C000004E082C2F200050B60AB6D40F2005690
:102A1C005A00D2184FF6FF73C2F200060340D218C8
:102A2C0030789308AB6543439B0998B2D3081B1AC3
:102A3C00226A9BB26083A383042A2CD90A689A4227
:102A4C00FCD344F22C42C4F201021360FFF776F976
:102A5C0000237C22B3540132B354236A26205A1C1F
:102A6C0040F248632262C2F20003597F1B5C0B43A5
:102A7C0023B9B368AA6D9A4207D370BD132AFCD947
:102A8C0040F2D073AA6D9A42F7D856230022EA542A
:102A9C0003F0B6FAF1E70A68D3E7C046F0B540F2A6
:102AAC008054402358226021C646C2F20004E35AE7
:102ABC00605CA385A35A00B50133A3520232A35A1A
:102ACC000133A3520232A35A0133A3520232A35A46
:102ADC000133A352223AA35C034323B96120255C42
:102AEC00002D00D0FFE040F24866C2F20006F57FF0
:102AFC008DB140F280016820C2F200010A7E235A97
:102B0C00013A5219013391009BB28A182352920058
:102B1C00934200DDA5E02E23E35C9846002B6DD19B
:102B2C0040F200055633C2F20005EB5C002B00D0DE
:102B3C006BE040F20057C2F200075E23E25A142AFF
:102B4C0011D96B220121A1540022E2527B78002B77
:102B5C0000D10BE12423E35C002B00D0CEE1737F8A
:102B6C00002B00D1A2E15C233A79E15A914200D8C2
:102B7C007DE00022E252236AE08F952B00D99FE082
:102B8C00482140F280026B5CC2F20002DBB253546B
:102B9C00A18D0A1A9A4202DDC11889B2A185421A86
:102BAC00934266DAC31A99B23C23E35CA185002BED
:102BBC0063D17F22BA5C002A00D172E04423EA88F8
:102BCC00E35ACD48534393FBF0F36E20D3189BB2DA
:102BDC002352E18742F62C41C4F201010A6042F60D
:102BEC003442C4F20102136042F63842C4F20102CC
:102BFC00136042F63C42C4F2010213607022A35AE5
:102C0C000133A35280BCB846F0BD2423E35C002BF7
:102C1C0000D18EE703F0E2F903F0DAF9522340F227
:102C2C000057EB5CC2F20007002B00D04CE10028EF
:102C3C0000D1B0E17C22BB5C0133BB542379002B67
:102C4C0000D07AE740F280017C23C2F20001FA5CEA
:102C5C008B7E9A4200D870E701232371FFF7C4FEE4
:102C6C006BE76A230122E2540023235253E7E18FDE
:102C7C00A1853C23E35C002B9BD02422A25C002A80
:102C8C0097D0628E2F2A00D893E7EA8840F2D07052
:102C9C0013004B4393FBF0F36E2001339BB2235292
:102CAC0097E7327F022A00D1EAE0EA8840F2D0703E
:102CBC0013004B4393FBF0F36E209BB2235288E737
:102CCC00952800D85CE740F2F41322689A4200D9A8
:102CDC000FE14A2340F280024821EB5CC2F2000271
:102CEC00DBB2535454E7258D002D00D0E9E0622669
:102CFC0044F62067A35B01339BB2A353BB4200D8BD
:102D0C00F1E66423E35A1E2B00D863E1012340F261
:102D1C004866A354C2F200062333F35C012B00D0A7
:102D2C005FE16533E25A0D33FF33B2FBF3F36354C7
:102D3C0040F27113002560279A420AD901F08EFAED
:102D4C006420FEF7C9FD01F081FFE35D0135AB4264
:102D5C00F4DC40F20057C2F20007FB78BA78134358
:102D6C00002B00D0C3E62622B354C0E6737F002BA1
:102D7C0000D19BE02423E35C002B00D1F3E640F26E
:102D8C008001C2F20001086BAA6D84468B8B086C23
:102D9C00D31A8A6A0B625A43944462460A63844586
:102DAC0001DD844608634042604501DD84460863CA
:102DBC00886BCA6A181A50434A6A8B6353434A6C2D
:102DCC001B1863444863CB63934201DD1300CA6351
:102DDC0052429A4201DD1300CA63E26C94464EF2F1
:102DEC0060326344C0F21602934200DCCEE0E2642F
:102DFC003423E35C002B00D1B5E6A96F626D8C46E1
:102E0C008821E38E6958D31A2A6FAB665A43624401
:102E1C00AA678A4201DD0A00A9674942914201DD95
:102E2C000A00A96740F2800C61466958686F591A0C
:102E3C00414360462B50E86EE96743435B189B188F
:102E4C008C228421AA586B50934201DD13006A50E6
:102E5C0052429A4202DD8423EA501300A26B94463C
:102E6C0045F6F0026344C0F23812934200DCACE049
:102E7C00A263236A632B00D975E60023AB6772E665
:102E8C00002B00D111E7022003F0F8FD40F2D071C5
:102E9C00337BEA88534393FBF1F399005B186E2163
:102EAC005B0032339BB26352A18D92E63423E35C18
:102EBC00002B00D157E62423E35C002B00D152E613
:102ECC009BE76222A3520EE6002871D17C22BB5CE8
:102EDC000133BB542379002B00D02EE640F2800145
:102EEC007C23C2F20001FA5C4B7E9A4200D824E6A5
:102EFC00B2E6AC3BFF3BEDE630F8FFFF6C23E25E45
:102F0C002C23F15C9C334B43296BD31A8C46AA6A55
:102F1C00296C5A4362442B622A638A4201DD0A00FF
:102F2C0029634942914201DD0A002963A96BE86AD1
:102F3C00591A4143686AAB6343435B189B186A6C2C
:102F4C006963EB63934201DD1300EA6352429A42D8
:102F5C0001DD1300EA6342F2107240F2800193FB30
:102F6C00F2F3C2F200018A8AD31A2A891BB28B822D
:102F7C00934201DA13B28B8240F2D072934200DD9D
:102F8C008A82737F002B00D0FDE631E7002B2BDC0F
:102F9C000023E3642CE77D22BB5C0133DBB2BB5422
:102FAC002A3AAA5C9A4200D348E67C23F854C4E53A
:102FBC007D22BB5C0133DBB2BB542A3AAA5C9A4239
:102FCC0088D27C234246FA54B7E5002B00DA002362
:102FDC00A3634EE7A55340F248662554C2F200069F
:102FEC0085E501F03BF9B4E6E36401E7F0B5DE46B4
:102FFC0057464E464546E0B585B003F011FC40F609
:10300C00E0724EF2DA331168C5F62513994208D1F5
:10301C0046F2D9335168C4F6B863994201D100F035
:10302C0043FC40F20006C2F2000640F24867C2F2CE
:10303C00000703F09BFA03F0FBFBFEF7F1FCFB78B7
:10304C00022B04D13B79142B01D100F0B1FC0223EB
:10305C0040F24860FB7012333B71C021113B326867
:10306C00C2F200007B7003F02DF87B7C013B5A1EF2
:10307C0093415422B354B388F3803B7D03B9FB7462
:10308C002623FB5C002B01D000F024FC40F28008CE
:10309C00C2F2000840F2805401F03AF86423002296
:1030AC00C2F20004E25203F06FF901F0CFFD02F01E
:1030BC00ADFE3523E35C13B134230122E25440F21C
:1030CC00005B40F2006502F077FFC2F2000BC2F227
:1030DC0000050397628923899B18A2899B18E289B2
:1030EC009B18228A9B18628A9B1804335B106365B9
:1030FC00236A042B00D9F2E1039B9B7C002B00D1AB
:10310C0079E2052342465376937601F09FFD039BAB
:10311C005B7D012B00D1EDE1022B00D1F8E1702396
:10312C0042F21072E35A93420CD940F23C0A5246D6
:10313C00A25C002A00D085E349F640418B4201D9BC
:10314C0000F003FC582244F62063A15A99420CD992
:10315C006C23E35E40F268111B0493FBF1F3616F87
:10316C008C46634463670023A35240F2E833226A1F
:10317C009A4200D8D4E130210020238D6054C72B13
:10318C0000D841E20399C97C11B19F2B00D8D2E140
:10319C007821615C002900D1DAE140F28F118B4279
:1031AC0000D8CEE103235846616D91FBF3F17B33DC
:1031BC00C35C216013B10A2A00D938E26B78002B6A
:1031CC0000D191E0B36D322B00D88DE04EF200139C
:1031DC0040F20831CEF200035A58DC481202120AAF
:1031EC005A500C315A5840F26A09024044F200001D
:1031FC000243FF205A5008395A588243BF380243C1
:10320C005A504B46E35C9A46002B00D08CE0AB79CD
:10321C00002B00D0FCE16B23E35C012B00D199E087
:10322C002E2340F20009E25C4B46EB75002A00D0DD
:10323C0021E142F2C070636DC0F2090090FBF3F320
:10324C002432A05C58430A2380B2A880B0FBF3F070
:10325C004133F35C2883002B00D013E240F2D0738F
:10326C00424653822B23039AA878D15C814200D228
:10327C001CE2236A632B00D99BE140F2F413B26D7C
:10328C009A4200D895E10C22993BFF3BF2542F2334
:10329C00039AD35C002B00D0A2E141F22403C4F2C8
:1032AC0000031A684AF6C8739A4200D812E724231E
:1032BC00E35C9946012B00D00CE73022A35C013370
:1032CC00A35402F08BFE56234A46F254638E2F2BE6
:1032DC0005D800232422A35441F28833B36500237C
:1032EC002362FFF781FBF5E64EF2001340F2083043
:1032FC008021CEF200031A58C9051202120A0A43A1
:10330C0040F214311A505A58904840F26A0902405F
:10331C00FF205A5008395A5882435A504B46E35CA6
:10332C009A46002B00D172E76C226621636FAF883E
:10333C00A25AA8781B0C615A0097FEF743FB0A208F
:10334C0003F0A4FE00234A46A3546B23E35C012B39
:10335C0000D065E702F0CCFC688940F200574102CE
:10336C0009188A02511A8A02521AD30048F6E262EC
:10337C00C0F2651294461B1863441B1401202B8168
:10338C0001F0CCF92B89AA89AB7040F6E443534386
:10339C0040F6FF72414693FBF2F24C23CB5A662067
:1033AC005343642293FBF2F3215AC2F20007CA0082
:1033BC00521A9B185A46BC46127CDB1099B2215209
:1033CC00500084446046808A5F4681467820385A93
:1033DC006746B8825F46FF680132BC464F46604480
:1033EC00C01B5F46D2B2F860312A00D900223A7471
:1033FC0032225F46B0FBF2F04832B8524FF6FF7201
:10340C00104040F6E4422861424340F2343092FBD3
:10341C00F0F210B2120400D58EE16C22A0522422DC
:10342C000398825C012A00D18FE1022A06D1037A2B
:10343C008B4200D893E1AB8A0133AB8240F22E0968
:10344C004B4642F2107CE25CA98A90008018030182
:10345C001B1A58011B189B005B426344994200DD08
:10346C0083E16B23002140F20009E1544B46EB75DC
:10347C00002A00D1DDE6638E302B73D93C22A25C8E
:10348C00002A6FD0313B572B00D99BE1AB7E002B30
:10349C0000D03BE2FFF7F8F940F22A32039B40F2EE
:1034AC005009D97E41F6583392FBF1F293FBF1F3BC
:1034BC00009230217822608EFEF7DCF94A464346B2
:1034CC0098524FF6FF731840FEF7F8F943464A46F8
:1034DC009A5A40F2582393FBF2F3AB80FAE504239B
:1034EC0042465376937601F0B1FB039B5B7D012B37
:1034FC0000D011E6B288602153080092B06DC8224A
:10350C00FEF7B8F9039BF0805B7D022B00D006E63A
:10351C0023681A00653A942A44D8DB00F380FEE550
:10352C00238DDBB930216354642A6DD80399C97C8F
:10353C00002900D12CE63021002060544831615C18
:10354C0031B130230021E1542CE6C046FF00FFFFCF
:10355C00952B55D85E236421F15423E6642A00D8B8
:10356C0010E60CE60123AB76039B1B7F9946012BDF
:10357C0000D1ABE0022B00D1BFE042F63442002375
:10358C00C4F20102136042F63842C4F20102136025
:10359C0042F63C42C4F20102136003F021FA00230C
:1035AC00AB8097E5013B622B3AD840F22033F38095
:1035BC00B5E50C2340F2F41200936421093B20681A
:1035CC00FEF758F95C23B26DF054312A00D95EE64F
:1035DC000222F2542F23039AD35C002B00D15CE619
:1035EC00172340F2D07200936421A08D0A3BFEF7A2
:1035FC0041F9207651E6082342465376937684E5CA
:10360C005E230A21F154CDE5302100206054B9E548
:10361C00FEF7F2F9312003F039FD5346AB71FAE5B0
:10362C00F82B00D87BE540F2D073F38077E5E06FA0
:10363C00FEF73EF923685A08904217D940F2CF7230
:10364C00934213D8002222622A7801322A70039AFC
:10365C00927C8AB9628E2F2A0ED9002224216254C0
:10366C0056220121B15472895208E2877E22002130
:10367C005846E3678154A1E540F2E832B16D9142BE
:10368C00EED9EAE7B38B47469C464E234C21F25ABF
:10369C00FB5A715A00936346FEF7ECF82B23039AFE
:1036AC007882D15CA878814200D3E2E5424640F2B0
:1036BC00010C2333D35A67460A005B080A320A39D5
:1036CC000097FEF7D7F843465882D2E5039A283381
:1036DC00D35CC8225343843AA352F288BF49534364
:1036EC0040F26E0A93FBF1F3D31852469BB2A352ED
:1036FC00632B4FD803F0A0FB51E7022003F0BEF977
:10370C00039B1A7BF388534340F2D07293FBF2F283
:10371C0093009B1842F634425B003233C4F2010230
:10372C00136042F63842C4F20102136042F63C4286
:10373C00C4F20102136032E76C220020A052242252
:10374C000398825C012A00D06FE65F32A25C318B59
:10375C0051434FF6FF721340994200DD6BE6AB7D8F
:10376C00002B00D06AE6AB8268E6012340F2000A27
:10377C00AB755346638603F033F902F02FFC00223D
:10378C0024235146E2544033E152283BE2544B4649
:10379C00E25C66E603F0E2F8534642F63442E35A42
:1037AC00C4F20102136042F63842C4F20102136003
:1037BC0042F63C42C4F20102136049467F235A464A
:1037CC00D154ECE60123AB76FFF75EF8638EC82B81
:1037DC0005D946234A46E25242460A33D352502375
:1037EC004246D05AFEF76AF84623E35E002B00D01F
:1037FC0070E42E222421A3542D3A62543231725497
:10380C0042F22832B2652260E26741F2240242F2AF
:10381C002831C4F2000211601422594622626B3224
:10382C008B5442465233D25C0333F254039B5B7F7E
:10383C001BB14A234246D35AE387FEF77FFA02F0C4
:10384C00D9FF47E403F0CCF800255346E554253363
:10385C00E5540333E55242F63443C4F20103658662
:10386C001D6042F63843C4F201031D6042F63C432E
:10387C00C4F201031D6002F0C7FF40F2347040F245
:10388C0000122900C2F2000003F00BFDBFF34F8FB2
:10389C004EF600530422CEF20003C0F2FA52DA6064
:1038AC00BFF34F8FC046FDE740F20006137BC2F218
:1038BC0000062B2B00D189E0352B00D17FE01F2B8C
:1038CC0001D0FFF7B2FB47F60043C0F600033360AC
:1038DC00FFF7ABFB40F2E8334B22B3830123B35425
:1038EC007B82002340F28008BB82BB753389C2F215
:1038FC0000083233338143464146013A9B5A3233F6
:10390C008B52738932337381FFF7C4FB44F20C433F
:10391C000121C4F201031A688A431A6002F05EFBAB
:10392C0042F634434A46C4F201031A6042F6384365
:10393C00C4F201031A6042F63C43C4F201031A605C
:10394C0003F0CAFA4B46AB76A4E5914603F048F86F
:10395C004A465346E2546123E2540333E25242F6A0
:10396C003443C4F2010362861A6042F63843C4F24F
:10397C0001031A6042F63C43C4F201031A6002F0E0
:10398C0043FF40F2347040F200120021C2F20000FA
:10399C0003F087FCBFF34F8F4EF600530422CEF298
:1039AC000003C0F2FA52DA60BFF34F8FC046FDE756
:1039BC007B78022B01D9FFF758FBFFF748FB4FF63A
:1039CC000003C0F600033360FFF72FFB4FF6000334
:1039DC00C0F601033360FFF728FBC04630F8FFFF49
:1039EC00F0B540F23474C2F200046368226883B00C
:1039FC00981A7A4B0100C21840F276539A4235D885
:103A0C0040F2F05640F208750023C2F20006C2F2F2
:103A1C00000533802B78002B4CD06B78CBB9AB786E
:103A2C00002B00D1B9E0A88840F21207C2F20007BF
:103A3C0001333988AB70FDF73BFF322800D889E0A1
:103A4C0000232B703B88AB806B785BB1616823687B
:103A5C00C91A40F2E143994200D86CE0AB794B2B88
:103A6C0000D99FE00023A86833800AE040F2E453B9
:103A7C000022C2F200031A8040F20873C2F2000363
:103A8C00986840F2A65340F2BC31C2F20003C2F275
:103A9C0000011A880968841A8C4203DD52181A80B6
:103AAC0003B0F0BD141AA14202DA521A1A80F7E7D9
:103ABC001880F5E740F24863C2F200039C7CACB17D
:103ACC0040F21403C2F200031A88904223D840F249
:103ADC001003C2F20003198840F2E833009300236C
:103AEC00FDF7C8FEA86000233380CAE740F212033A
:103AFC00C2F200031A8840F21003C2F200031988C4
:103B0C0040F2FF7300932F23FDF7B4FE302847DCFF
:103B1C000020AC60E7E740F21203C2F200031C88FD
:103B2C0040F2D073511C0093220040F2E933FDF7B0
:103B3C00A1FEA860D7E740F21000C2F20000048892
:103B4C00AB79E200121B01335118DBB2C908AB711F
:103B5C00018084E73988226863689B1ACA00521A6C
:103B6C009B18DB08AA789BB23B80322A00D86AE704
:103B7C001B4A193B94469BB23B806344DA0F40F2DC
:103B8C004861D3182122C2F200015B108B5401232F
:103B9C006B7000F0ABFB3B8855E780B2A88043E725
:103BAC00A860A0E740F21002C2F20002138840F2B3
:103BBC00486119339BB213800A4A0024944663442B
:103BCC00DA0FD3182022C2F200015B108B542C7038
:103BDC00FEF7A6F8AC7100F0CBFB43E7DFFCFFFF70
:103BEC002AF9FFFF12FDFFFF40F2BC3CF0B5C2F218
:103BFC00000C40F2347444F620636246C2F20004B6
:103C0C009380220000260020002744F6206508CA75
:103C1C007C341168994206D0CB1AAB4201D20127F1
:103C2C009DB20126C01804320B009442F1D1002F32
:103C3C0000D16EE063469D80002E40D040F20253CE
:103C4C0040F20872C2F2000319784009C2F2000275
:103C5C00D060012963D040F20351C2F200010C780C
:103C6C00012C17D01E78344344BB6E1E022E63D831
:103C7C003B2823D840F2C63114740122C2F2000151
:103C8C001A7040F231730C700E21C2F200031970DD
:103C9C00202366E044F65653C93DADB29D420DD883
:103CAC0040F2C6334722C2F200031A700223624666
:103CBC00937140F2E153C2F200031C70F0BD40F26C
:103CCC00025340F20872C2F200031978C2F20002E9
:103CDC000020D6600129BED1691E022950D9291FA6
:103CEC000429B8D80121197040F2C633C2F200037E
:103CFC00197040F2317311740722C2F200031A706A
:103D0C0020236246937140F2E153C2F20003197012
:103D1C00D4E744F62065002E00D08FE7CFE7691E6C
:103D2C00022926D83B282BD940F20351C2F20001BC
:103D3C000C78012C96D1C1E72C1F042C02D86328D7
:103D4C00BCD8CFE744F65653C93DADB29D42B5D869
:103D5C00012240F2C6330A704721C2F200031970E7
:103D6C00022361468B7140F2E153C2F200031A70D8
:103D7C00A4E7291F042900D96DE76328D4D8B1E73B
:103D8C0040F2C6310024C2F200010C7040F23171D5
:103D9C000E26C2F200010E7020216646B17140F26F
:103DAC00E1511474C2F2000101341C700C7052E722
:103DBC0070B540F2BC54C2F2000423782BB140F22F
:103DCC000163C2F200031B7853B940F2E153C2F213
:103DDC0000031B78002B00D1A3E0012B11D070BD88
:103DEC0040F23073C2F200031B78002B00D17DE04F
:103DFC0002F00CF840F2D0530222C2F200031A7007
:103E0C00EDE740F20163C2F200031B78002B76D180
:103E1C0040F20255C2F200052B78012B00D1A3E031
:103E2C0040F20353C2F200031B78012B00D18FE048
:103E3C002378002BD3D12B7853B340F20873C2F202
:103E4C0000035A7C072A23D840F2E451C2F2000145
:103E5C00098805291CD940F23470C2F20000C16FE8
:103E6C0000680132091A586989B28446D2B2614499
:103E7C005A745961082A0BD140F2BC30CA08C909DE
:103E8C0092B289B25418C2F20000511A04811983FB
:103E9C0040F2A854C2F200042088002849D040F215
:103EAC004863C2F20003DB79002B98D140F2E45254
:103EBC00C2F20002138040F2DC530026984200D874
:103ECC008DE740F20875C2F20005698BFDF7F0FC36
:103EDC00322857D82B7F0133DBB22B77322B02D908
:103EEC006B78002B4AD023886B8378E701F0F6FFC0
:103EFC0040F2D0530122C2F200031A706FE740F275
:103F0C003073C2F200031B7883B140F2D453C2F277
:103F1C0000031888FDF78CFBFDF7FAF801F076FF2B
:103F2C005DE7FFF761FE01F071FF58E701F0D6FF86
:103F3C0055E740F20873C2F200031B78002BAED198
:103F4C0040F2E453C2F200031A8801321A8046E7A9
:103F5C0002F02AF840F2BC33C2F2000348B103224B
:103F6C009A7101F053FF63E7FDF7D2F801F04EFFB1
:103F7C0056E702229A71FFF733FDF2E700F03AFAA6
:103F8C0001232B702E77AEE740F22572031CC2F290
:103F9C0000020B2800D90B235B0013707047C0463E
:103FAC00F0B54E464546DE4657464DF6C009E0B5DF
:103FBC0042F6284840F2F056032083B002F05EFD32
:103FCC000024514DC2F20006C0F2A709C4F2010848
:103FDC001DE06A78002A43D142F63443C4F201034F
:103FEC001A6042F63843C4F201031A6042F63C43AD
:103FFC00C4F201031A60E3011C1B6400201880B298
:10400C00FDF76AFC0024414B02359D420CD000F0B8
:10401C001DFE002328783380FF28DAD13B4B013476
:10402C000235E4B29D42F2D102F0DAFC42F62843AA
:10403C000022C4F201031A6040F20403C2F200032E
:10404C00198842F62C43C4F201031960328000F047
:10405C00FDFD03B0F0BCBB46B246A946A046F0BD80
:10406C0040F6A07C53019B1ADB009A1A624499FB20
:10407C00F2F143460A221A604DF60052C0F26D026C
:10408C00019192FBF1F242F62C41C4F201010A605B
:10409C0040F2257140F6B73AC2F200010B7842F6B5
:1040AC00344B534393FBFAFCC4F2010B5B4667465B
:1040BC001F600B7842F6384B534393FBFAFCC4F267
:1040CC00010B5B4667461F60097864234A4342F63E
:1040DC003C4192FBFAF2C4F201010A60E201141BAA
:1040EC0048F2A0620199C0F201026400241892FB0C
:1040FC00F1F0604390FBF3F04FF6FF731840FDF7BF
:10410C00EBFB00247FE7C0467C060020F80600206D
:10411C0010B572B640F248633022C2F200039B5CC9
:10412C00FF2B0DD0FFF73CFF40F20403C2F200035B
:10413C001A8842F62C43C4F201031A6062B610BD11
:10414C0042F62C4340F6B732C4F201031A6040F237
:10415C00257342F63442C2F200031978C4F201020C
:10416C00116042F638421978C4F2010211601A78D3
:10417C0042F63C43C4F201031A60032042F6284481
:10418C0002F07CFC3723C4F201042360C820FDF745
:10419C00A3FB052002F072FC2823C8202360FDF746
:1041AC009BFB062002F06AFC1923C8202360FDF754
:1041BC0093FB02F015FC40F2F0530022C2F2000314
:1041CC0022601A80B0E7C04670B542F62C4540F626
:1041DC00B733C4F201052B6072B642F6284400F0E6
:1041EC0035FD3C23C4F20104236040F2257342F6F2
:1041FC003442C2F200031978C4F20102116042F693
:10420C0038421978C4F2010211601A7842F63C4324
:10421C00C4F201031A60012002F030FC4B20FDF7C0
:10422C005BFB50234B202360FDF756FB5A23236086
:10423C0000F00CFD4B20FDF74FFB02F0D1FB40F2E0
:10424C00F0530022C2F2000322601A8040F20403F1
:10425C00C2F200031B882B6062B670BD70B572B6DB
:10426C0042F62C4540F6B733C4F201052B6042F6FA
:10427C00284400F0EBFC5023C4F20104236040F20C
:10428C00257342F63442C2F200031978C4F20102DB
:10429C00116042F638421978C4F2010211601A78A2
:1042AC0042F63C43C4F201031A60032002F0E6FB21
:1042BC006420FDF711FB462364202360FDF70CFB03
:1042CC00282364202360FDF707FB02F089FB40F2F2
:1042DC00F0530022C2F2000322601A8040F2040361
:1042EC00C2F200031B882B6062B670BD70B542F63B
:1042FC002C4540F6B733C4F2010542F628442B6036
:10430C003223C4F20104236040F2257342F6344296
:10431C00C2F200031978C4F20102116042F638426D
:10432C001978C4F2010211601A7842F63C43C4F2C7
:10433C0001031A60022002F0A1FB9620FDF7CCFAD3
:10434C0000F084FC1E2396202360FDF7C5FA02F0D2
:10435C0047FB40F2F0530022C2F2000322601A80A5
:10436C0040F20403C2F200031B882B6070BDC046F0
:10437C0070B542F62C4540F6B733C4F2010542F64F
:10438C0028442B602823C4F20104236040F22573D7
:10439C0042F63442C2F200031978C4F201021160F1
:1043AC0042F638421978C4F2010211601A7842F6CA
:1043BC003C43C4F201031A60022002F05FFB96201A
:1043CC00FDF78AFA00F042FC502396202360FDF79B
:1043DC0083FA02F005FB40F2F0530022C2F2000314
:1043EC0022601A8040F20403C2F200031B882B6087
:1043FC0070BDC04642F62C4340F6B732C4F20103FE
:10440C0070B51A6072B640F2257342F63442C2F2AD
:10441C0000031978C4F20102116042F6384219788F
:10442C00C4F2010211601A7842F63C4342F6284568
:10443C0077241426C4F201031A60C4F2010500F0BB
:10444C0005FC94FBF6F002F019FB63100A330A200A
:10445C002B60023CFDF740FA631CF0D102F0C0FA6D
:10446C0040F2F0530022C2F200032A601A8040F29C
:10447C000403C2F200031A8842F62C43C4F201036F
:10448C001A6062B670BDC04642F208430122C4F203
:10449C00010319680A4202D119680A431A6070476D
:1044AC0042F208420821C4F2010213680B43136064
:1044BC0013681942FCD1042113680B43136042F2B8
:1044CC000842C4F2010213681942FCD17047C0467D
:1044DC0042F2084340F20011C4F201031A680A4385
:1044EC001A60704742F208438022C4F20103196833
:1044FC0012040A431A60704701B340F200130342DE
:10450C0006D042F20442C4F2010211680B4313605C
:10451C0040F20043034206D042F20442C4F20102CC
:10452C0011680B4313600223034206D042F2084287
:10453C00C4F2010211680B4313607047C30507D521
:10454C0042F20443C4F201031A680C490A401A608F
:10455C00430507D542F20443C4F201031A68084923
:10456C000A401A6002230342E7D042F20842C4F226
:10457C000102116899431160DFE7C046FFFEFFFF9F
:10458C00FFFBFFFF42F20843C4F201031A6820B19B
:10459C0040F600010A431A60704702490A401A604B
:1045AC00FAE7C046FFF7FFFF012812D002280FD10F
:1045BC0042F23843C4F201031A680E480139024032
:1045CC00C0201A601A680905800301401143196064
:1045DC00704742F22C43C4F201031A6806480139B1
:1045EC000240F0201A601A680905000401401143CA
:1045FC001960EDE7FFFFCFFFFFFF0FFF30B5052878
:10460C001DD842F23444C4F2010483002568181802
:10461C001F2383409D430B0083402B4323600929B8
:10462C0018D842F21040C4F201004B00046859182B
:10463C0007238B408A409C432243026030BD0B28E9
:10464C0013D842F230448300C4F2010418182568D0
:10465C001E38DDE71229F1D842F20C404B00C4F2AF
:10466C000100591804681E39E2E70F28D7D842F226
:10467C002C448300C4F20104181825683C38C7E7A1
:10468C00B1B1C30708D542F208438022C4F201033A
:10469C00196852030A431A60830708D542F208438B
:1046AC0048F20001C4F201031A680A431A60704709
:1046BC00C30707D542F20843C4F201031A6807493D
:1046CC000A401A608307F2D542F20843C4F2010390
:1046DC001A6803490A401A60E9E7C046FFFFEFFF7A
:1046EC00FF7FFFFF01280DD002280AD142F20843B8
:1046FC00C4F201031A68074802401A601A68114391
:10470C001960704742F20843C4F201031A68024868
:10471C00F2E7C046FF8FFFFFFFFFF1FFC30708D58D
:10472C0042F208438022C4F201031968D2030A43FF
:10473C001A60830708D542F208438022C4F20103B1
:10474C00196892030A431A607047C0461C2330B59F
:10475C00150343F20002C4F201031C682A40064D03
:10476C002C4022430C01702121400A4381000C2073
:10477C00084002431A6030BD83CFFFFF1C23C4F2F4
:10478C0001030A4A1B681340020240F200701040F9
:10479C001843012906D0064B18401C23C4F2010310
:1047AC001860704740F600031843F6E7FFF8FFFF68
:1047BC00FFF7FFFF1C230121C4F201031A680A430F
:1047CC001A6070471C23C4F2010318684004C00F20
:1047DC007047C046082310B50124810008188000DA
:1047EC00C4F20203C2181368A343136000231360BE
:1047FC000C22C4F20202821813601022C4F20202CC
:10480C00821813601422C4F20202944604226044FB
:10481C0003600F338B40C4F2020210680343136031
:10482C0010BDC04600230022036043608360C36058
:10483C0003830361827643617047C0468300181876
:10484C00082310B501248000C4F20203C3181A68AF
:10485C00A2431A6010220C68C4F20202821814607F
:10486C0014228C68C4F20202821814600C22C4F266
:10487C00020294460A8A604402601A681748CC689F
:10488C0010404A6822434C69224302431A600A7E54
:10489C00012A16D040201A6882431A604A7E012AE7
:1048AC0016D080201A6882431A608A7E22B91021A1
:1048BC001A688A431A6010BD10211A680A431A60DC
:1048CC00F9E740201A6802431A604A7E012AE8D1AF
:1048DC0080201A6802431A60E7E7C046FFC0FFFF5A
:1048EC00830018180823C4F202039C46202280007F
:1048FC0060440368134303607047C0468300181874
:10490C000823C4F202039C46202280006044036802
:10491C00934303607047C046830018180823C4F201
:10492C0002039C4601228000604403681343036029
:10493C007047C046830018180823C4F202039C4633
:10494C000122800060440368934303607047C046B3
:10495C001022C4F20202944683001B189B0063448D
:10496C00196070471422C4F20202944683001B188B
:10497C009B00634419607047030010B5042905D0EF
:10498C00082903D00020022900D010BD0022C4F257
:10499C00020214680A0098008240C0180823C4F26E
:1049AC0002039C46800060440068224001401AB11A
:1049BC004B1E9941C8B2E8E70020E6E704238000CB
:1049CC008140C4F202031A68114319607047C04653
:1049DC00F0B540F20044C4F201042368C74383439A
:1049EC00236040F20443C4F201031D6885431D603B
:1049FC0040F20845C4F201052E6886432E6040F251
:104A0C000C45C4F201052E6886432E6051B1012974
:104A1C0002D1196801431960012A08D0022A1DD05D
:104A2C006AB1F0BD236803432360012AF6D140F23A
:104A3C000843C4F201031A6817401F6015E040F2E6
:104A4C000843C4F201031A681043186040F20C4387
:104A5C00C4F201031A6817401F60E2E740F20843F2
:104A6C00C4F201031A6802431A6040F20C43C4F208
:104A7C0001031A6810431860D3E7C04640F2144390
:104A8C00C4F201031860704740F21442C4F20102F0
:104A9C00136803405A1E9341D8B2704740F2144336
:104AAC00C4F201031860704742F21003C4F202030F
:104ABC001B681B060DD542F2040340F22312C4F20C
:104ACC000203C4F267521A6048F6AB12CCF6EF52EE
:104ADC001A60704742F210038021C4F202031A6874
:104AEC000A431A607047C04642F200020721C4F222
:104AFC00020213688B4303431360704742F20003B6
:104B0C001021C4F202031A680A431A607047C046A7
:104B1C00F02342F20C0210B501241B03C4F2020272
:104B2C0011680C4230D11368DB0637D413685B076D
:104B3C0036D442F210030221C4F202031A680A436B
:104B4C001A6042F21402C4F2020210601A683E317A
:104B5C000A431A60F02342F20C0201201B03C4F238
:104B6C0002021168084214D11368DB061AD41068CB
:104B7C004007C00F400042F210030221C4F20203AE
:104B8C001A688A431A6010BD013B002BC8D105205E
:104B9C00F9E7013B002BE4D10520ECE70420F2E718
:104BAC000220F0E70420E6E7F02342F20C0230B5D5
:104BBC0001251B03C4F202021468254227D1136895
:104BCC00DB062ED413685B072DD442F21003C4F21B
:104BDC0002031A6815431D6042F20C02F0230160B7
:104BEC0001201B03C4F202021168084214D113689D
:104BFC00DB061AD410684007C00F400042F21003C5
:104C0C000121C4F202031A688A431A6030BD013BC9
:104C1C00002BD1D10520F9E7013B002BE4D1052075
:104C2C00ECE70420F2E70220F0E70420E6E7C046B8
:104C3C0042F20C03C4F202031860704743F2000303
:104C4C004CF6CC42C4F200031A60704743F20003E6
:104C5C004AF6AA22C4F200031A60704743F200031A
:104C6C0045F2555230B543F20C04C4F200031A60FD
:104C7C000123C4F200042268012513404FF6FE7292
:104C8C00C0F20F023BB12368013A2B40002AF9D144
:104C9C000BB1002030BD43F20403C4F200031960D1
:104CAC0043F20C010223C4F200010A6802241340EF
:104CBC004FF6FE72C0F20F0233B10B68013A23407B
:104CCC00002AF9D1002BE4D140F6FF73184043F2CF
:104CDC000803C4F20003186043F200034AF6AA2248
:104CEC00C4F2000301201A60D4E7C046F0B5056891
:104CFC00C468DE0704D50326B543B4430D431443FF
:104D0C009E0706D50C268F00B543B44396003D4351
:104D1C0034435E0706D530260F01B543B443160164
:104D2C003D4334431E0706D5C0268F01B543B4431B
:104D3C0096013D433443DE0606D5374E0F0235400F
:104D4C00344016023D4334439E0606D5334E8F0243
:104D5C003540344096023D4334435E0606D5304E12
:104D6C000F033540344016033D4334431E0606D52D
:104D7C002C4E8F033540344096033D433443DE05BF
:104D8C0006D5294E0F043540344016043D433443B8
:104D9C009E0506D5254E8F043540344096043D4380
:104DAC0034435E0506D5224E0F05354034401605BA
:104DBC003D4334431E0506D51E4E8F053540344009
:104DCC0096053D433443DE0406D51B4E0F06354095
:104DDC00344016063D4334439E0406D5174E8F06C9
:104DEC003540344096063D4334435E0406D5144E9C
:104DFC000F073540344016073D4334431B0407D599
:104E0C00AD00A400AD088907A40892070D43144314
:104E1C000560C460F0BDC046FFFCFFFFFFF3FFFF61
:104E2C00FFCFFFFFFF3FFFFFFFFFFCFFFFFFF3FF85
:104E3C00FFFFCFFFFFFF3FFFFFFFFFFCFFFFFFF375
:104E4C00FFFFFFCF10B5012964D044689C43446038
:104E5C008168DC0702D50324A14311439C0703D5C9
:104E6C000C24A143940021435C0703D53024A143B7
:104E7C00140121431C0703D5C024A14394012143F1
:104E8C00DC0603D5254C2140140221439C0603D596
:104E9C00234C2140940221435C0603D5214C214034
:104EAC00140321431C0603D51F4C214094032143BA
:104EBC00DC0503D51D4C2140140421439C0503D56E
:104ECC001B4C2140940421435C0503D5194C214013
:104EDC00140521431C0503D5174C2140940521438F
:104EEC00DC0403D5154C2140140621439C0403D546
:104EFC00134C2140940621435C0403D5114C2140F2
:104F0C00140721431B0403D5890089089207114318
:104F1C00816010BD41681943416099E7FFFCFFFFB8
:104F2C00FFF3FFFFFFCFFFFFFF3FFFFFFFFFFCFF84
:104F3C00FFFFF3FFFFFFCFFFFFFF3FFFFFFFFFFC74
:104F4C00FFFFFFF3FFFFFFCF30B5046A436AD507BD
:104F5C0002D50F25AC430C43950703D5F025AC4384
:104F6C000D012C43550703D5294D2C400D022C4324
:104F7C00150703D5274D2C400D032C43D50603D51F
:104F8C00254D2C400D042C43950603D5234D2C4068
:104F9C000D052C43550603D5214D2C400D062C43F5
:104FAC00150603D5240124090D072C43D50502D57C
:104FBC000F25AB430B43950503D5F025AB430D01F2
:104FCC002B43550503D5124D2B400D022B431505D4
:104FDC0003D5104D2B400D032B43D50403D50E4D9B
:104FEC002B400D042B43950403D50C4D2B400D0584
:104FFC002B43550403D50A4D2B400D062B431204AD
:10500C0003D51B011B0909070B430462436230BD26
:10501C00FFF0FFFFFF0FFFFFFFFFF0FFFFFF0FFF92
:10502C00FFFFFFF0F0B5CE46474643B280B5002BEC
:10503C0028DB40F2FF094EF2001203244E46CEF25A
:10504C000002944640F200370440E400A6409D085C
:10505C00AD006544EA598901B24316004A460A403C
:10506C00A2403243EA511F224EF2001110401E3A68
:10507C0082405B09CEF200019B005A50C0BCB9467D
:10508C00B046F0BD4EF60052CEF200029446032418
:10509C00FF220F23034020401400C00089018440EC
:1050AC000A408240083B9B089B006344DD69A54392
:1050BC002A43DA61E2E7C0464FF68073C1F6FF730C
:1050CC0019404EF600530143CEF200039960BFF332
:1050DC004F8F704741F200031F21C4F202039C461C
:1050EC00012382090840834010B5624414682343AD
:1050FC00136010BD41F200021F21C4F2020294465B
:10510C00830908401E39814063441A688A431A6037
:10511C007047C04641F200031F21C4F202039C46B3
:10512C00012382090840834010B56244146823436C
:10513C00136010BD41F200021F21C4F2020294461A
:10514C00830908401E39814063441A688A431A60F7
:10515C007047C04641F20403C4F202031A68424984
:10516C000A401A6041F230034FF6FF61C4F20203A9
:10517C001A68C7F6FE710A401A60092817D83B4B0B
:10518C0080001B589F4641F20403C4F202031A68C4
:10519C001A6041F230038022C4F20203196812062D
:1051AC000A4340F200111A601A680A431A607047E9
:1051BC0041F204034CF20001C4F202031A680A43E0
:1051CC003EE041F204034CF20001C4F202031A68FF
:1051DC000A43DDE741F23003C4F202031A682449A2
:1051EC000A401A601A6823490A401A60DFE741F244
:1051FC00040344F20001C4F202031A680A431FE0DC
:10520C0041F2040344F20001C4F202031A680A4397
:10521C00BEE741F2040348F20001C4F202031A682B
:10522C000A430DE041F2040348F20001C4F2020308
:10523C001A680A43ACE741F20403C4F202031A6889
:10524C001A6041F2300340F20011C4F202031A68F2
:10525C000A431A60ABE741F230038022C4F2020326
:10526C00196852020A43BCE7FF3FFFFF987300081E
:10527C00FFFFFEFFFFFEFFFF47F2D833F0B589B00A
:10528C00C0F60003020004A81C000100E0CCE0C141
:10529C006D4624680C6019002C001031C0C9C0C4C4
:1052AC0021001033C0CBC0C141F20401C4F2020191
:1052BC000B681B079B0F022B22D041F20023C0F27C
:1052CC007A0341F204061F00C4F202063168090693
:1052DC00090F415C0720CF403168090A01406D5C21
:1052EC003168C90A0840215C3800C840052A00D939
:1052FC00AEE0584992008A589746180009B0F0BDA4
:10530C000B6809689B021B0F09011AD40F2B00D1E3
:10531C0080E0023341F20401C4F202010968C903BE
:10532C0017D541F22C01C4F202010E680F21314055
:10533C0041F200260131C0F27A06B6FBF1F14B4383
:10534C00BFE741F20401C4F2020109681133C90339
:10535C00E7D45E01F61AB101891BC900CB181B02F8
:10536C00AFE741F23002C4F202021368DB053AD413
:10537C00802310685B0218404342584146F2800378
:10538C004042CFF62A73184043F60073C0F2AB13B9
:10539C009C466044B2E741F230010322C4F20201A0
:1053AC000C682242AAD00C6818001440012CA5D01D
:1053BC000B681340022B44D0086810400338431E7E
:1053CC0098414EF600634042CFF68573184041F287
:1053DC000023C0F27A039C4660448FE738008DE7C7
:1053EC003800E8408AE741F204030321C4F20203C7
:1053FC001B6812689B0B0B40D20F022B1CD0032B8B
:10540C000AD0012B10D04008002A00D176E7B7FB58
:10541C00F1F073E710237DE7C008002A00D16DE797
:10542C000920B7FBF0F069E78008002A00D165E796
:10543C000520B7FBF0F061E732B90623B0FBF3F0BF
:10544C005CE748F2000059E70720B7FBF0F055E79E
:10545C00002053E7C073000842F60043C4F2010376
:10546C0010B5984248D014D841F20003C4F200039E
:10547C0098424AD042F20003C4F2000398421DD174
:10548C0040F20840FFF746FE40F20840FFF752FE9C
:10549C0010BD44F20043C4F2010398423ED044F6DE
:1054AC000003C4F20103984217D140F21230FFF707
:1054BC0031FE40F21230FFF73DFEE9E740F20043C7
:1054CC00C4F200039842E3D140F20140FFF722FE00
:1054DC0040F20140FFF72EFEDAE744F20003C4F27B
:1054EC0001039842D4D140F21030FFF713FE40F282
:1054FC001030FFF71FFECBE740F20B30FFF70AFE30
:10550C0040F20B30FFF716FEC2E740F20440FFF703
:10551C0001FE40F20440FFF70DFEB9E740F21130F6
:10552C00FFF7F8FD40F21130FFF704FEB0E7C0467C
:10553C004FF6FF738360002303604360037370476F
:10554C000B88836242F60043C4F20103984232D0C6
:10555C0040F20043C4F2000398422CD08B68C36223
:10556C0042F20003C4F2000398420DD044F2000250
:10557C002A4BC4F201020340934205D044F60003C7
:10558C00C4F20103984234D10368254A13400360E6
:10559C000268CB88134344F2000203601F4BC4F231
:1055AC0001020340934222D044F60003C4F20103EB
:1055BC0098421CD01DE0702203689343036002687C
:1055CC004B881343036002688B88134303608B681A
:1055DC00C36242F60043C4F2010398420ED1036841
:1055EC000F4A134003600268CB88134303600B7BA4
:1055FC0003630122436913434361704740F2004344
:10560C00C4F200039842ABD10368054A134003600F
:10561C000268CB8813430360EBE7C046FFFBFFFF38
:10562C00FFFCFFFF01220368134303607047C04671
:10563C0080220368134303607047C04680220368CE
:10564C00934303607047C046C3688B43C360704785
:10565C00C94301617047C046C94301617047C046E8
:10566C004369194341617047002303804380838061
:10567C00C3800381438183817047C0464A880B886D
:10568C0013438A881343CA8813430A8913434A89EC
:10569C0013438A89134343647047C046436C012902
:1056AC0003D0044A13404364704748F2000213438A
:1056BC004364F9E7FF7FFFFF00230380438083806F
:1056CC00C380038143817047022900D1A8E032D8FE
:1056DC0000295CD01021036A8B43036283698849DB
:1056EC000B4083611388016A1B010B432021036269
:1056FC00036A8B4303629388016A1B010B430362A9
:10570C0042F60043C4F20103984200D1CFE044F2C8
:10571C000003C4F2010398420CD144F20403C4F216
:10572C0001031968774801401960128919689200C1
:10573C000A431A6070470329FCD1036A72490B4073
:10574C000362C3696E490B40C3611388016A1B0372
:10575C000B430362036A6D490B4003629388016A31
:10576C001B030B43036242F60043C4F2010398424D
:10577C00E0D142F60443C4F20103196864480140C5
:10578C0019601289196892010A431A60D2E7012143
:10579C00036A8B430362836902318B438361016A21
:1057AC0013880B4302210362036A8B430362016A71
:1057BC0093880B43036242F60043C4F20103984200
:1057CC000DD044F200014F4BC4F2010103408B4257
:1057DC0005D044F60003C4F201039842AAD1042177
:1057EC00036A8B430362016A53880B4308210362EB
:1057FC00036A8B430362016AD3880B4303624368D9
:10580C0044490B404360416813890B434360436830
:10581C0041490B404360416853890B43436089E71E
:10582C00036A3C490B400362C3690531FF318B436A
:10583C00C3611388016A1B020B430362036A364976
:10584C000B4003629388016A1B020B43036242F60E
:10585C000043C4F20103984200D06BE7036A294964
:10586C000B4003625388016A1B020B430362036AF9
:10587C002A490B400362D388016A1B020B43036263
:10588C0042F60443C4F2010319681F480140196031
:10589C001189186809010143196019681B480140F6
:1058AC0019605289196812010A431A6042E74021B3
:1058BC00036A8B4303625388016A1B010B438021EB
:1058CC000362036A8B430362D388016A1B010B4397
:1058DC00036242F60443C4F201031968094801400B
:1058EC0019601189186889000143196019680B48FF
:1058FC00014019605289196892000A431A6019E72D
:10590C00FFFCFFFFFFFBFFFFFFEFFFFFFFDFFFFFD2
:10591C00FFBFFFFFFFFEFFFFFFFDFFFFFFF7FFFFD6
:10592C00022915D009D8D9B18369114912020B404B
:10593C00836183691A43826170470329FCD1C3696F
:10594C000B4912020B40C361C3691A43C261F3E7EE
:10595C007021C3698B43C361C3691A43C261EBE70E
:10596C00702183698B43836183691A438261E3E706
:10597C00FF8FFFFF022915D009D8D9B183691149CE
:10598C0012020B40836183691A43826170470329B9
:10599C00FCD1C3690B4912020B40C361C3691A43A2
:1059AC00C261F3E70821C3698B43C361C3691A431E
:1059BC00C261EBE7082183698B43836183691A43D6
:1059CC008261E3E7FFF7FFFF022915D009D8E1B1A7
:1059DC001021036A12018B430362036A1A430262A9
:1059EC0070470329FCD1036A0C4912030B40036274
:1059FC00036A1A430262F3E7036A094912020B4075
:105A0C000362036A1A430262EAE70121036A8B43C9
:105A1C000362036A1A430262E2E7C046FFEFFFFF2C
:105A2C00FFFEFFFF012903D0022912D049B17047B4
:105A3C004021036A12018B430362036A1A43026218
:105A4C00F5E7036A04318B430362036A1A4302626B
:105A5C00EDE7036A034912020B400362036A1A431F
:105A6C000262E4E7FFFBFFFF002301220380428078
:105A7C008380C3807047C046F0B5C646158800B514
:105A8C006B426B4154885B009846012C00D1A7E017
:105A9C0040F200170126002951D140F20A0C0126D0
:105AAC006346016AB1430162016A99430162016A6A
:105ABC0043460D430562032581691B01A94381619E
:105ACC0081690C438461F0248169A1438161D1888F
:105ADC0084690D01254385610C25046A090334434F
:105AEC00046284699288AC43846184690F361443E0
:105AFC008461046A9435B4430462046A1202AC43B0
:105B0C000462046A234303628569374B1D40856137
:105B1C008469364B3C43846184691C40846183698D
:105B2C0019438161036A32493343036283690B4031
:105B3C00836183691A43826180BCB846F0BD40F230
:105B4C00A00C10276346016A2D01B9430162016A5A
:105B5C00240299430162016A43460D43056281693F
:105B6C00214D2940816181690C43846181691F4CFD
:105B7C0021408161D18885690C032C438461046ABE
:105B8C0009013C4304629588194C82690F3F2240FD
:105B9C00826184692A0222430A248261026ABA431E
:105BAC000262026AA2430262026A13430322036284
:105BBC00836993438361836933438361F0238469ED
:105BCC009C438461836919430C238161026A3A43C3
:105BDC00026282699A43826183692B438361ABE7DA
:105BEC0040F20027022656E7FFFCFFFFFF0FFFFFE6
:105BFC00FFF3FFFF44F20043C4F2000370B504004E
:105C0C000D00984222D043F60003C4F20103002099
:105C1C009C4202D10530FFF72FFB23681B040CD5E7
:105C2C00400069084118B1FBF5F14FF6F0700B0715
:105C3C005B0F01401943E16070BD69080918B1FBA5
:105C4C00F5F14FF6FF752940E160F5E70220FFF70B
:105C5C0013FBE2E701220368134303607047C0465D
:105C6C00082302689A43026003680B430360704781
:105C7C00042302689A43026003680B430360704775
:105C8C0001220368934303608368073213438360E4
:105C9C007047C046802382689A43826083680B43B6
:105CAC00836070470B4885460B480C490C4A1368B7
:105CBC000432036004308842F9D30A480A490022AE
:105CCC00026004308842FBD301F002FAFDF78EF932
:105CDC00704700000020002000000020C8030020B6
:105CEC0014740008C803002058080020FEE70000C8
:105CFC0040F2287340F20A62C2F200039988C2F2A1
:105D0C000002118040F20C621988C2F2000211806C
:105D1C0040F278525B88C2F2000213807047C04692
:105D2C0000B540F2115089B0FFF7D4F940F2096088
:105D3C00FFF7D0F940F20050FFF7CCF90620FFF73F
:105D4C0009FA9020482300220321C005FEF7CEFF5C
:105D5C000020FEF73FFD42F24C43C4F201030193D5
:105D6C0040F22873C2F200036A46039340F2001318
:105D7C009383029340F2004304930023937703220E
:105D8C0001A9002006930592FEF758FD0020FEF7AE
:105D9C00A7FD0020FEF7C0FD00210220FEF7ACFBA2
:105DAC00012140F20010FEF7A7FB0020FEF7EAFBF2
:105DBC0003210120FEF7F8FBFEF794FB05220321DB
:105DCC000020FEF71BFC052206210120FEF716FC25
:105DDC00052210210220FEF711FCE021012009030D
:105DEC00FEF780FC01210120FEF74AFCFEF74CFB7C
:105DFC0040F2E830FBF762FDFEF752FBFEF768FB62
:105E0C000120FEF78BFC09B000BDC04641F2100327
:105E1C000221C4F202031A6810B50A431A601A6808
:105E2C0040F200248A431A6040F218434122C4F223
:105E3C0000031A6040F22043373AC4F200031A60A0
:105E4C0040F2C632C2F20002117840F22842C4F28B
:105E5C000002116040F22C424FF6FF71C4F20002B6
:105E6C00116040F214420121C4F200021068084390
:105E7C00106040F230720020C2F20002107040F24A
:105E8C002442C4F20002106040F234725030C2F26C
:105E9C000002C4F20200026040F2C232C2F20002FE
:105EAC0010784822C4F20202106040F20C42C4F294
:105EBC0000021068204310601A680A431A6040F20E
:105ECC000043C4F200031A680A431A60442340F6E4
:105EDC008B12C4F202031A6010BDC04641F21003CB
:105EEC000221C4F202031A6810B50A431A601A6838
:105EFC0040F214408A431A6040F218436022C4F204
:105F0C0000031A6040F220420323C4F20002136023
:105F1C0040F21873C2F20003197840F22843C4F21D
:105F2C000003196040F22C436421C4F20003196091
:105F3C0040F230710123C2F200010B70C4F2000078
:105F4C0004681C43046040F238405024C2F2000044
:105F5C00C4F20204206048204978C4F202001731D0
:105F6C000160442140F69B10C4F20201086040F22B
:105F7C000C4140F20024C4F2000108682043086080
:105F8C00116848F200001943116040F24442C4F217
:105F9C00000211680143116040F20042C4F2000299
:105FAC0011680B43136010BD40F210431020C4F66F
:105FBC0000031B681840704740F2004010B51023D6
:105FCC0001220221C4F60000FEF790FE10BDC0466F
:105FDC0010B5FEF7F7FBC0B210BDC04640F200434F
:105FEC00C4F201031A6805490A401A6040F21443CE
:105FFC008022C4F2010392031A607047FFFFDFFF97
:10600C0040F200438022C4F20103196892030A4350
:10601C001A60704740F25502C2F200021378012B4D
:10602C0046D0042B44D0022B3BD0052B39D0032B6C
:10603C0019D0062B17D040F25203C2F200031B7882
:10604C00EBB140F20843C4F201031A681C490A4040
:10605C001A6040F20C438022C4F2010319689203C7
:10606C000A431A6070471C234122C4F201031A60D0
:10607C0040F25203C2F200031B78002BE1D140F234
:10608C0008438022C4F20103196892030A431A6080
:10609C0040F20C43C4F201031A6809490A401A6021
:1060AC00E0E71C236121C4F2010319601378BEE7F9
:1060BC001C235121C4F2010319601378B3E7C046C5
:1060CC00FFFFDFFFF0B5CE4647460325884680B577
:1060DC0083B016006A46CB171D404544AD10AB008B
:1060EC000733DB08DB00D31A00AF9D466C468146B4
:1060FC002A000021200001F0D4F84346032B13DDC5
:10610C004846002293009C468178C37809041B06FC
:10611C000B43017801320B434178043009020B43E5
:10612C00614663509542EDDC3D60FEF7BDFCB30566
:10613C001FD000237B607B683A689A4211D978683B
:10614C007B6880009B0019598019FEF72DFD3420C7
:10615C00FEF76EFD7B6801337B607A683B689A4280
:10616C00EDD3FEF7B7FCBD4603B0C0BCB946B04694
:10617C00F0BD3000FEF7CCFCDBE7C04670B5002A62
:10618C002BDD040003230C4323405C4263410224B7
:10619C004D1C451BAC42A44164421C421ED0531EF4
:1061AC00082B1BD90B009408A4006418451A1E6810
:1061BC00EE500433A342FAD103241300A343144238
:1061CC000BD0CC5CC4545C1CA24206DD0D5D0233CA
:1061DC0005559A4201DDCA5CC25470BD8A18451A35
:1061EC000B786B5401319142FAD1F6E77047C046F7
:1061FC00FEE7C0467047C0467047C04610B501F078
:10620C003DF810BD40F2016310B5C2F200031B78DB
:10621C0033B140F2BC53C2F200031B78002B3DD1CA
:10622C0004210320FEF7A8FB60B902210320FEF72E
:10623C00A3FB01281FD008210320FEF79DFB01289A
:10624C0052D010BD40F20353C2F200031B78002B56
:10625C00EBD040F220430221C4F200031A68032061
:10626C000A431A600231FEF7A9FB02210320FEF754
:10627C0083FB0128DFD101210230FEF79FFB0320B5
:10628C00FEF758FBFDF794FD40F2104348F2000175
:10629C00C4F201031A680A431A60D2E7042341F2DC
:1062AC000001C4F202031A6801240A431A60442351
:1062BC00C4F202031A68A2431A6040F23073C2F2AD
:1062CC0000031B7843B1FFF7A1FD40F2D05302222B
:1062DC00C2F200031A70D7E7FFF700FE40F2D0536A
:1062EC00C2F200031C70CFE701210230FEF766FBFF
:1062FC00A7E7C046802010B58003FEF7C5FB00B9A8
:10630C0010BD80208003FEF7B9FBFBF7C9FDF7E752
:10631C0042F2000010B50121C4F20000FFF798F919
:10632C00FCF7BCFB10BDC04670B544F6240540F626
:10633C00340444F20040C4F201052B68C2F200049C
:10634C000121C4F201002380FFF782F9FBF75EFD07
:10635C002B6822889B1A238070BDC04644F2000033
:10636C0010B50121C4F20100FFF776F910BDC0464B
:10637C007047C0467047C04610B548F20000FEF7A3
:10638C007DFBFCF767FA10BD10B5022140F6A0703A
:10639C00FEF764FCFEF752FC10BDC04670B542F629
:1063AC0000448CB0C4F2010440F20B60FEF792FE84
:1063BC0008AE2000FFF750F83000FFF7B9F80025C1
:1063CC0040F6B733310020000A93089509953573D0
:1063DC00FFF7B6F801A8FFF76FF9200001AA00211A
:1063EC00019502950395FFF76FF9200001AA012191
:1063FC00FFF76AF9200001AA0221FFF765F92000D6
:10640C0070220021FFF78CFA200008220021FFF7F0
:10641C00B1FA200060220121FFF782FA2000082245
:10642C000121FFF7A7FA200060220221FFF778FA7A
:10643C0004AE082202212000FFF79CFA3000FFF77F
:10644C0013F932233100C2F20003200005930495A6
:10645C000695B581FFF712F920002021FFF7F4F81B
:10646C0080212000FFF7F0F8200040F20044902536
:10647C00FFF7DEF840F21150C4F60004FEF72AFED6
:10648C0040F21250FEF726FE2000022300220221C9
:10649C00FEF72CFC2000022303220021FEF7D2FC85
:1064AC002000012300220221ED05FEF71FFC200035
:1064BC00012303220021FEF7C5FC280040F2001343
:1064CC0000220221FEF712FC40F2001328000322E6
:1064DC000021FEF7B7FC200002220221FEF734FD5A
:1064EC00200001220221FEF72FFD280040F20012AD
:1064FC000221FEF729FD280040F200430022022170
:10650C00FEF7F4FB200040F2004303220021FEF7CB
:10651C0099FC280040F2002300220221FEF7E6FB42
:10652C00200040F2002303220021FEF78BFC280000
:10653C00802300220221FEF7D9FB802320000322B6
:10654C000021FEF77FFC280040F200420221FEF7FA
:10655C00FBFC280040F200220221FEF7F5FC802211
:10656C0002212800FEF7F0FC0CB070BDF0B5C64659
:10657C0040F2005000B54EF20014FEF7ABFD40F2B5
:10658C000831CEF200046358564A1A40C0231B044B
:10659C001343635040F200432360FFF7FFFE40F2C9
:1065AC000470FEF797FD41F22C034FF6FF7640F294
:1065BC002308C4F200031E6041F228034246C4F2D1
:1065CC0000031A6040F21260FEF784FD44F62C03BF
:1065DC00C4F201031E6044F6000544F62803472765
:1065EC00C4F20103C4F201051F602800FFF720F874
:1065FC0028009025FFF716F8ED0540F21150FEF734
:10660C0069FD0223002203212800FEF76FFB40F2F4
:10661C000060FEF75FFD2800802520230022032167
:10662C00FEF764FB002205210020FEF78FF8AD0376
:10663C0000210020FEF7A2F8002200212800FEF71E
:10664C00C7F92800FEF72AFA00210C20FEF7EAFC15
:10665C0040F21160FEF73EFD44F22C43C4F20103FC
:10666C001E6044F2284344F200464246C4F2010341
:10667C00C4F201061A603000FEF7DAFF3000FEF7B4
:10668C00D1FF40F214321849A3580B4044F20001D8
:10669C000B43A350256040F20870FEF71BFD42F23D
:1066AC002C033222C4F200031A6042F2280340F297
:1066BC001031C022C4F200031F60635812061B0283
:1066CC001B0A1343635080231B03236042F2000018
:1066DC00C4F20000FEF7A6FF00F070FC80BCB846C8
:1066EC00F0BDC046FFFF00FFFF00FFFF30B540F2DA
:1066FC00004483B040F21150FEF7ECFC40F2125013
:10670C00FEF7E8FCC4F6000440F20050FEF7E2FC91
:10671C001023200003220021FEF794FB10222000FE
:10672C000121FEF711FC40F234410320C4F20001B8
:10673C00FEF70EF940F234710320C2F20001FEF7AD
:10674C0011F9442340F68A12C4F202031A604EF285
:10675C00001240F208308021CEF200021358C90515
:10676C001B021B0A0B43135040F60003136040F24C
:10677C000170FEF7AFFC40F22C434FF6FF72C4F2EF
:10678C0000031A6040F2004540F228430A22C4F28A
:10679C000003C4F200051A602800FEF74FFF68469C
:1067AC00FFF762F90A23C0F20103009300236A4643
:1067BC00002128000193FFF75FF92800FEF732FF54
:1067CC001023002202212000FEF790FA03B030BD06
:1067DC0042F63443C4F201031860704742F6384362
:1067EC00C4F201031860704742F63C43C4F2010343
:1067FC001860704742F6004010B50121C4F2010048
:10680C00FEF72EFF10BDC04640F228430022C4F212
:10681C0000031A6040F22443C4F200031A6070476C
:10682C0010B562B60220FEF75FF9FEF767F910BDEE
:10683C0070B542F600440125C4F201042000012287
:10684C000021FFF7C1F8200001220121FFF7BCF85D
:10685C00200001220221FFF7B7F8200004220021BA
:10686C00FFF7E0F8200004220121FFF7DBF80422F7
:10687C0020000221FFF7D6F8236820002B43236069
:10688C000121FEF70BFF44F20040C4F20100036843
:10689C0001212B430360FEF7E3FE44F20C43C4F2E8
:1068AC0001031A6841F20000AA431A6044F600037F
:1068BC00C4F201031A68C4F200002A431A60036888
:1068CC0001212B430360FEF7CBFE42F20000C4F221
:1068DC000000036801212B430360FEF7C1FE42F266
:1068EC000C0340F20044C4F200031A68C4F2000422
:1068FC002A431A60FFF714FAFDF75CFF40F2E83008
:10690C00FAF7DCFF012200212000FFF75DF8236875
:10691C0040F212501D432560FEF7ECFB40F2005094
:10692C00FEF7E8FB4EF2001240F204308021CEF26A
:10693C000002135809061B021B0A0B431350802339
:10694C00136040F2004348F20001C4F201031A68DC
:10695C000A431A60FFF7CAFE70BDC0469023DB05E0
:10696C001A681B491B481140802252030A432821F4
:10697C001A6040F20042C4F600010A601A68104026
:10698C008022D20202431A6040F200220A601A6886
:10699C001148024044F2000002431A6080220A604F
:1069AC0040F200420C20C4F6000211688143043806
:1069BC0001431160116805388143013801431160AE
:1069CC001A6806491140802292020A431A607047E5
:1069DC00FFFFCFFFFFFFF3FFFF3FFFFFFFFFFCFFBA
:1069EC0040F200410C22C4F600010B6830B5934311
:1069FC00083A134340F228440B600223C4F6000407
:106A0C0023609023DB051A68184803251040802268
:106A1C00520302431A60282240F20040C4F60002DE
:106A2C0010600868A843023D284308602560196877
:106A3C000F4808408021C9020143196040F200212F
:106A4C00116019680B480840802149020143196004
:106A5C0040F20011116019680748014044F200002F
:106A6C00014319608023136030BDC046FFFFCFFF88
:106A7C00FFFFF3FFFFFFFCFFFF3FFFFF70B5062892
:106A8C0052D8E84B80001B589F4640F200420C2124
:106A9C00C4F600021368E4488B4308390B431360B7
:106AAC0040F228430239C4F6000319609023DB0539
:106ABC0019680324084080214903014328201960E8
:106ACC0040F20041C4F6000001601168A143023C91
